{"abi":[{"type":"constructor","inputs":[{"name":"_shardId","type":"uint256","internalType":"uint256"}],"stateMutability":"nonpayable"},{"type":"function","name":"add","inputs":[{"name":"value","type":"uint256","internalType":"uint256"}],"outputs":[],"stateMutability":"nonpayable"},{"type":"function","name":"count","inputs":[],"outputs":[{"name":"","type":"uint256","internalType":"uint256"}],"stateMutability":"view"},{"type":"function","name":"increment","inputs":[],"outputs":[],"stateMutability":"nonpayable"},{"type":"function","name":"recordCrossShardCall","inputs":[{"name":"fromShard","type":"uint256","internalType":"uint256"},{"name":"value","type":"uint256","internalType":"uint256"}],"outputs":[],"stateMutability":"nonpayable"},{"type":"function","name":"shardId","inputs":[],"outputs":[{"name":"","type":"uint256","internalType":"uint256"}],"stateMutability":"view"},{"type":"event","name":"CrossShardCall","inputs":[{"name":"fromShard","type":"uint256","indexed":false,"internalType":"uint256"},{"name":"toShard","type":"uint256","indexed":false,"internalType":"uint256"},{"name":"value","type":"uint256","indexed":false,"internalType":"uint256"}],"anonymous":false},{"type":"event","name":"Incremented","inputs":[{"name":"shardId","type":"uint256","indexed":false,"internalType":"uint256"},{"name":"newCount","type":"uint256","indexed":false,"internalType":"uint256"}],"anonymous":false}],"bytecode":{"object":"0x608060405234801561000f575f80fd5b5060405161045638038061045683398181016040528101906100319190610075565b80600181905550506100a0565b5f80fd5b5f819050919050565b61005481610042565b811461005e575f80fd5b50565b5f8151905061006f8161004b565b92915050565b5f6020828403121561008a5761008961003e565b5b5f61009784828501610061565b91505092915050565b6103a9806100ad5f395ff3fe608060405234801561000f575f80fd5b5060043610610055575f3560e01c806306661abd146100595780631003e2d2146100775780637d96962714610093578063bd31ba33146100af578063d09de08a146100cd575b5f80fd5b6100616100d7565b60405161006e91906101c0565b60405180910390f35b610091600480360381019061008c9190610207565b6100dc565b005b6100ad60048036038101906100a89190610232565b6100f6565b005b6100b761014e565b6040516100c491906101c0565b60405180910390f35b6100d5610154565b005b5f5481565b805f808282546100ec919061029d565b9250508190555050565b805f80828254610106919061029d565b925050819055507f6558bfe03f0054c67396234fe49fe2c0ab67b3d77bc8dc2f7e51cd44b3b49b258260015483604051610142939291906102d0565b60405180910390a15050565b60015481565b5f8081548092919061016590610305565b91905055507f230c08f549f5f9e591e87490c6c26b3715ba3bdbe74477c4ec927b160763f7676001545f5460405161019e92919061034c565b60405180910390a1565b5f819050919050565b6101ba816101a8565b82525050565b5f6020820190506101d35f8301846101b1565b92915050565b5f80fd5b6101e6816101a8565b81146101f0575f80fd5b50565b5f81359050610201816101dd565b92915050565b5f6020828403121561021c5761021b6101d9565b5b5f610229848285016101f3565b91505092915050565b5f8060408385031215610248576102476101d9565b5b5f610255858286016101f3565b9250506020610266858286016101f3565b9150509250929050565b7f4e487b71000000000000000000000000000000000000000000000000000000005f52601160045260245ffd5b5f6102a7826101a8565b91506102b2836101a8565b92508282019050808211156102ca576102c9610270565b5b92915050565b5f6060820190506102e35f8301866101b1565b6102f060208301856101b1565b6102fd60408301846101b1565b949350505050565b5f61030f826101a8565b91507fffffffffffffffffffffffffffffffffffffffffffffffffffffffffffffffff820361034157610340610270565b5b600182019050919050565b5f60408201905061035f5f8301856101b1565b61036c60208301846101b1565b939250505056fea26469706673582212202f20840ecb2949a58894703cc495a1469bcc4f31de7edcf4e42e48ad052e2bc364736f6c63430008140033","linkReferences":{}},"methodIdentifiers":{"add(uint256)":"1003e2d2","count()":"06661abd","increment()":"d09de08a","recordCrossShardCall(uint256,uint256)":"7d969627","shardId()":"bd31ba33"},"id":0}