{"abi":[{"type":"constructor","inputs":[{"name":"_shardId","type":"uint256","internalType":"uint256"}],"stateMutability":"nonpayable"},{"type":"function","name":"add","inputs":[{"name":"value","type":"uint256","internalType":"uint256"}],"outputs":[],"stateMutability":"nonpayable"},{"type":"function","name":"count","inputs":[],"outputs":[{"name":"","type":"uint256","internalType":"uint256"}],"stateMutability":"view"},{"type":"function","name":"increment","inputs":[],"outputs":[],"stateMutability":"nonpayable"},{"type":"function","name":"recordCrossShardCall","inputs":[{"name":"fromShard","type":"uint256","internalType":"uint256"},{"name":"value","type":"uint256","internalType":"uint256"}],"outputs":[],"stateMutability":"nonpayable"},{"type":"function","name":"shardId","inputs":[],"outputs":[{"name":"","type":"uint256","internalType":"uint256"}],"stateMutability":"view"},{"type":"event","name":"CrossShardCall","inputs":[{"name":"fromShard","type":"uint256","indexed":false,"internalType":"uint256"},{"name":"toShard","type":"uint256","indexed":false,"internalType":"uint256"},{"name":"value","type":"uint256","indexed":false,"internalType":"uint256"}],"anonymous":false},{"type":"event","name":"Incremented","inputs":[{"name":"shardId","type":"uint256","indexed":false,"internalType":"uint256"},{"name":"newCount","type":"uint256","indexed":false,"internalType":"uint256"}],"anonymous":false}],"bytecode":{"object":"0x608060405234801561001057600080fd5b506040516104793803806104798339818101604052810190610032919061007a565b80600181905550506100a7565b600080fd5b6000819050919050565b61005781610044565b811461006257600080fd5b50565b6000815190506100748161004e565b92915050565b6000602082840312156100905761008f61003f565b5b600061009e84828501610065565b91505092915050565b6103c3806100b66000396000f3fe608060405234801561001057600080fd5b50600436106100575760003560e01c806306661abd1461005c5780631003e2d21461007a5780637d96962714610096578063bd31ba33146100b2578063d09de08a146100d0575b600080fd5b6100646100da565b60405161007191906101c9565b60405180910390f35b610094600480360381019061008f9190610215565b6100e0565b005b6100b060048036038101906100ab9190610242565b6100fb565b005b6100ba610154565b6040516100c791906101c9565b60405180910390f35b6100d861015a565b005b60005481565b806000808282546100f191906102b1565b9250508190555050565b8060008082825461010c91906102b1565b925050819055507f6558bfe03f0054c67396234fe49fe2c0ab67b3d77bc8dc2f7e51cd44b3b49b258260015483604051610148939291906102e5565b60405180910390a15050565b60015481565b60008081548092919061016c9061031c565b91905055507f230c08f549f5f9e591e87490c6c26b3715ba3bdbe74477c4ec927b160763f7676001546000546040516101a6929190610364565b60405180910390a1565b6000819050919050565b6101c3816101b0565b82525050565b60006020820190506101de60008301846101ba565b92915050565b600080fd5b6101f2816101b0565b81146101fd57600080fd5b50565b60008135905061020f816101e9565b92915050565b60006020828403121561022b5761022a6101e4565b5b600061023984828501610200565b91505092915050565b60008060408385031215610259576102586101e4565b5b600061026785828601610200565b925050602061027885828601610200565b9150509250929050565b7f4e487b7100000000000000000000000000000000000000000000000000000000600052601160045260246000fd5b60006102bc826101b0565b91506102c7836101b0565b92508282019050808211156102df576102de610282565b5b92915050565b60006060820190506102fa60008301866101ba565b61030760208301856101ba565b61031460408301846101ba565b949350505050565b6000610327826101b0565b91507fffffffffffffffffffffffffffffffffffffffffffffffffffffffffffffffff820361035957610358610282565b5b600182019050919050565b600060408201905061037960008301856101ba565b61038660208301846101ba565b939250505056fea2646970667358221220c99dc5feefce1e7d47e4c377c67c239fab4c9505eaccb6eba79d345658d6073064736f6c63430008170033","linkReferences":{}},"methodIdentifiers":{"add(uint256)":"1003e2d2","count()":"06661abd","increment()":"d09de08a","recordCrossShardCall(uint256,uint256)":"7d969627","shardId()":"bd31ba33"},"id":5}