{"abi":[{"type":"constructor","inputs":[{"name":"_trainBooking","type":"address","internalType":"address"},{"name":"_hotelBooking","type":"address","internalType":"address"},{"name":"_planeBooking","type":"address","internalType":"address"},{"name":"_taxiBooking","type":"address","internalType":"address"},{"name":"_yachtBooking","type":"address","internalType":"address"},{"name":"_movieBooking","type":"address","internalType":"address"},{"name":"_restaurantBooking","type":"address","internalType":"address"}],"stateMutability":"nonpayable"},{"type":"function","name":"bookTrainAndHotel","inputs":[],"outputs":[],"stateMutability":"nonpayable"},{"type":"function","name":"bookTrip","inputs":[{"name":"bookPlane","type":"bool","internalType":"bool"},{"name":"bookTaxi","type":"bool","internalType":"bool"},{"name":"bookYacht","type":"bool","internalType":"bool"},{"name":"bookMovie","type":"bool","internalType":"bool"},{"name":"bookRestaurant","type":"bool","internalType":"bool"}],"outputs":[],"stateMutability":"nonpayable"},{"type":"function","name":"checkAvailability","inputs":[{"name":"checkPlane","type":"bool","internalType":"bool"},{"name":"checkTaxi","type":"bool","internalType":"bool"},{"name":"checkYacht","type":"bool","internalType":"bool"},{"name":"checkMovie","type":"bool","internalType":"bool"},{"name":"checkRestaurant","type":"bool","internalType":"bool"}],"outputs":[{"name":"","type":"bool","internalType":"bool"}],"stateMutability":"view"},{"type":"function","name":"hotelBooking","inputs":[],"outputs":[{"name":"","type":"address","internalType":"address"}],"stateMutability":"view"},{"type":"function","name":"movieBooking","inputs":[],"outputs":[{"name":"","type":"address","internalType":"address"}],"stateMutability":"view"},{"type":"function","name":"planeBooking","inputs":[],"outputs":[{"name":"","type":"address","internalType":"address"}],"stateMutability":"view"},{"type":"function","name":"restaurantBooking","inputs":[],"outputs":[{"name":"","type":"address","internalType":"address"}],"stateMutability":"view"},{"type":"function","name":"taxiBooking","inputs":[],"outputs":[{"name":"","type":"address","internalType":"address"}],"stateMutability":"view"},{"type":"function","name":"trainBooking","inputs":[],"outputs":[{"name":"","type":"address","internalType":"address"}],"stateMutability":"view"},{"type":"function","name":"yachtBooking","inputs":[],"outputs":[{"name":"","type":"address","internalType":"address"}],"stateMutability":"view"}],"bytecode":{"object":"0x6101606040523480156200001257600080fd5b5060405162002e1b38038062002e1b83398181016040528101906200003891906200021e565b8673ffffffffffffffffffffffffffffffffffffffff1660808173ffffffffffffffffffffffffffffffffffffffff16815250508573ffffffffffffffffffffffffffffffffffffffff1660a08173ffffffffffffffffffffffffffffffffffffffff16815250508473ffffffffffffffffffffffffffffffffffffffff1660c08173ffffffffffffffffffffffffffffffffffffffff16815250508373ffffffffffffffffffffffffffffffffffffffff1660e08173ffffffffffffffffffffffffffffffffffffffff16815250508273ffffffffffffffffffffffffffffffffffffffff166101008173ffffffffffffffffffffffffffffffffffffffff16815250508173ffffffffffffffffffffffffffffffffffffffff166101208173ffffffffffffffffffffffffffffffffffffffff16815250508073ffffffffffffffffffffffffffffffffffffffff166101408173ffffffffffffffffffffffffffffffffffffffff168152505050505050505050620002d1565b600080fd5b600073ffffffffffffffffffffffffffffffffffffffff82169050919050565b6000620001e682620001b9565b9050919050565b620001f881620001d9565b81146200020457600080fd5b50565b6000815190506200021881620001ed565b92915050565b600080600080600080600060e0888a03121562000240576200023f620001b4565b5b6000620002508a828b0162000207565b9750506020620002638a828b0162000207565b9650506040620002768a828b0162000207565b9550506060620002898a828b0162000207565b94505060806200029c8a828b0162000207565b93505060a0620002af8a828b0162000207565b92505060c0620002c28a828b0162000207565b91505092959891949750929550565b60805160a05160c05160e051610100516101205161014051612a16620004056000396000818161039501528181610d5301528181610d9201528181610ee201528181611f5301526120a001526000818161032d0152818161043b01528181610bd701528181610c1601528181611ca70152611df40152600081816102c50152818161045f01528181610a5b01528181610a9a015281816119fb0152611b4801526000818161025d015281816104e4015281816108df0152818161091e0152818161174f015261189c0152600081816101f501528181610763015281816107a201528181610ebe015281816114a301526115f001526000818161062701528181610f2a0152818161109d015261134401526000818161050b01528181610f0601528181610f5001526111ea0152612a166000f3fe608060405234801561001057600080fd5b506004361061009e5760003560e01c80636e1ed9d8116100665780636e1ed9d81461012357806372a36fc51461015357806381fe644d1461017157806384e786791461018f5780639af6c63a146101ad5761009e565b80632990672c146100a35780633761653e146100bf5780633bc29004146100dd5780635710ddcd146100fb5780636c153bf914610105575b600080fd5b6100bd60048036038101906100b89190612238565b6101cb565b005b6100c7610439565b6040516100d491906122f4565b60405180910390f35b6100e561045d565b6040516100f291906122f4565b60405180910390f35b610103610481565b005b61010d6104e2565b60405161011a91906122f4565b60405180910390f35b61013d60048036038101906101389190612238565b610506565b60405161014a919061231e565b60405180910390f35b61015b610ebc565b60405161016891906122f4565b60405180910390f35b610179610ee0565b60405161018691906122f4565b60405180910390f35b610197610f04565b6040516101a491906122f4565b60405180910390f35b6101b5610f28565b6040516101c291906122f4565b60405180910390f35b6101d3610f4c565b84801561022d5750600073ffffffffffffffffffffffffffffffffffffffff167f000000000000000000000000000000000000000000000000000000000000000073ffffffffffffffffffffffffffffffffffffffff1614155b1561023b5761023a61149f565b5b8380156102955750600073ffffffffffffffffffffffffffffffffffffffff167f000000000000000000000000000000000000000000000000000000000000000073ffffffffffffffffffffffffffffffffffffffff1614155b156102a3576102a261174b565b5b8280156102fd5750600073ffffffffffffffffffffffffffffffffffffffff167f000000000000000000000000000000000000000000000000000000000000000073ffffffffffffffffffffffffffffffffffffffff1614155b1561030b5761030a6119f7565b5b8180156103655750600073ffffffffffffffffffffffffffffffffffffffff167f000000000000000000000000000000000000000000000000000000000000000073ffffffffffffffffffffffffffffffffffffffff1614155b1561037357610372611ca3565b5b8080156103cd5750600073ffffffffffffffffffffffffffffffffffffffff167f000000000000000000000000000000000000000000000000000000000000000073ffffffffffffffffffffffffffffffffffffffff1614155b156103db576103da611f4f565b5b60016000803373ffffffffffffffffffffffffffffffffffffffff1673ffffffffffffffffffffffffffffffffffffffff16815260200190815260200160002060006101000a81548160ff0219169083151502179055505050505050565b7f000000000000000000000000000000000000000000000000000000000000000081565b7f000000000000000000000000000000000000000000000000000000000000000081565b610489610f4c565b60016000803373ffffffffffffffffffffffffffffffffffffffff1673ffffffffffffffffffffffffffffffffffffffff16815260200190815260200160002060006101000a81548160ff021916908315150217905550565b7f000000000000000000000000000000000000000000000000000000000000000081565b6000807f000000000000000000000000000000000000000000000000000000000000000073ffffffffffffffffffffffffffffffffffffffff166040516024016040516020818303038152906040527f4a6e480e000000000000000000000000000000000000000000000000000000007bffffffffffffffffffffffffffffffffffffffffffffffffffffffff19166020820180517bffffffffffffffffffffffffffffffffffffffffffffffffffffffff83818316178352505050506040516105d091906123aa565b600060405180830381855afa9150503d806000811461060b576040519150601f19603f3d011682016040523d82523d6000602084013e610610565b606091505b50508091505080610625576000915050610eb3565b7f000000000000000000000000000000000000000000000000000000000000000073ffffffffffffffffffffffffffffffffffffffff166040516024016040516020818303038152906040527f0e424b2b000000000000000000000000000000000000000000000000000000007bffffffffffffffffffffffffffffffffffffffffffffffffffffffff19166020820180517bffffffffffffffffffffffffffffffffffffffffffffffffffffffff83818316178352505050506040516106ec91906123aa565b600060405180830381855afa9150503d8060008114610727576040519150601f19603f3d011682016040523d82523d6000602084013e61072c565b606091505b50508091505080610741576000915050610eb3565b86801561079b5750600073ffffffffffffffffffffffffffffffffffffffff167f000000000000000000000000000000000000000000000000000000000000000073ffffffffffffffffffffffffffffffffffffffff1614155b156108bd577f000000000000000000000000000000000000000000000000000000000000000073ffffffffffffffffffffffffffffffffffffffff166040516024016040516020818303038152906040527f537d22bd000000000000000000000000000000000000000000000000000000007bffffffffffffffffffffffffffffffffffffffffffffffffffffffff19166020820180517bffffffffffffffffffffffffffffffffffffffffffffffffffffffff838183161783525050505060405161086791906123aa565b600060405180830381855afa9150503d80600081146108a2576040519150601f19603f3d011682016040523d82523d6000602084013e6108a7565b606091505b505080915050806108bc576000915050610eb3565b5b8580156109175750600073ffffffffffffffffffffffffffffffffffffffff167f000000000000000000000000000000000000000000000000000000000000000073ffffffffffffffffffffffffffffffffffffffff1614155b15610a39577f000000000000000000000000000000000000000000000000000000000000000073ffffffffffffffffffffffffffffffffffffffff166040516024016040516020818303038152906040527f537d22bd000000000000000000000000000000000000000000000000000000007bffffffffffffffffffffffffffffffffffffffffffffffffffffffff19166020820180517bffffffffffffffffffffffffffffffffffffffffffffffffffffffff83818316178352505050506040516109e391906123aa565b600060405180830381855afa9150503d8060008114610a1e576040519150601f19603f3d011682016040523d82523d6000602084013e610a23565b606091505b50508091505080610a38576000915050610eb3565b5b848015610a935750600073ffffffffffffffffffffffffffffffffffffffff167f000000000000000000000000000000000000000000000000000000000000000073ffffffffffffffffffffffffffffffffffffffff1614155b15610bb5577f000000000000000000000000000000000000000000000000000000000000000073ffffffffffffffffffffffffffffffffffffffff166040516024016040516020818303038152906040527f537d22bd000000000000000000000000000000000000000000000000000000007bffffffffffffffffffffffffffffffffffffffffffffffffffffffff19166020820180517bffffffffffffffffffffffffffffffffffffffffffffffffffffffff8381831617835250505050604051610b5f91906123aa565b600060405180830381855afa9150503d8060008114610b9a576040519150601f19603f3d011682016040523d82523d6000602084013e610b9f565b606091505b50508091505080610bb4576000915050610eb3565b5b838015610c0f5750600073ffffffffffffffffffffffffffffffffffffffff167f000000000000000000000000000000000000000000000000000000000000000073ffffffffffffffffffffffffffffffffffffffff1614155b15610d31577f000000000000000000000000000000000000000000000000000000000000000073ffffffffffffffffffffffffffffffffffffffff166040516024016040516020818303038152906040527f537d22bd000000000000000000000000000000000000000000000000000000007bffffffffffffffffffffffffffffffffffffffffffffffffffffffff19166020820180517bffffffffffffffffffffffffffffffffffffffffffffffffffffffff8381831617835250505050604051610cdb91906123aa565b600060405180830381855afa9150503d8060008114610d16576040519150601f19603f3d011682016040523d82523d6000602084013e610d1b565b606091505b50508091505080610d30576000915050610eb3565b5b828015610d8b5750600073ffffffffffffffffffffffffffffffffffffffff167f000000000000000000000000000000000000000000000000000000000000000073ffffffffffffffffffffffffffffffffffffffff1614155b15610ead577f000000000000000000000000000000000000000000000000000000000000000073ffffffffffffffffffffffffffffffffffffffff166040516024016040516020818303038152906040527f537d22bd000000000000000000000000000000000000000000000000000000007bffffffffffffffffffffffffffffffffffffffffffffffffffffffff19166020820180517bffffffffffffffffffffffffffffffffffffffffffffffffffffffff8381831617835250505050604051610e5791906123aa565b600060405180830381855afa9150503d8060008114610e92576040519150601f19603f3d011682016040523d82523d6000602084013e610e97565b606091505b50508091505080610eac576000915050610eb3565b5b60019150505b95945050505050565b7f000000000000000000000000000000000000000000000000000000000000000081565b7f000000000000000000000000000000000000000000000000000000000000000081565b7f000000000000000000000000000000000000000000000000000000000000000081565b7f000000000000000000000000000000000000000000000000000000000000000081565b60007f000000000000000000000000000000000000000000000000000000000000000073ffffffffffffffffffffffffffffffffffffffff166040516024016040516020818303038152906040527f4a6e480e000000000000000000000000000000000000000000000000000000007bffffffffffffffffffffffffffffffffffffffffffffffffffffffff19166020820180517bffffffffffffffffffffffffffffffffffffffffffffffffffffffff838183161783525050505060405161101591906123aa565b600060405180830381855afa9150503d8060008114611050576040519150601f19603f3d011682016040523d82523d6000602084013e611055565b606091505b5050809150508061109b576040517f08c379a00000000000000000000000000000000000000000000000000000000081526004016110929061241e565b60405180910390fd5b7f000000000000000000000000000000000000000000000000000000000000000073ffffffffffffffffffffffffffffffffffffffff166040516024016040516020818303038152906040527f0e424b2b000000000000000000000000000000000000000000000000000000007bffffffffffffffffffffffffffffffffffffffffffffffffffffffff19166020820180517bffffffffffffffffffffffffffffffffffffffffffffffffffffffff838183161783525050505060405161116291906123aa565b600060405180830381855afa9150503d806000811461119d576040519150601f19603f3d011682016040523d82523d6000602084013e6111a2565b606091505b505080915050806111e8576040517f08c379a00000000000000000000000000000000000000000000000000000000081526004016111df9061248a565b60405180910390fd5b7f000000000000000000000000000000000000000000000000000000000000000073ffffffffffffffffffffffffffffffffffffffff163360405160240161123091906122f4565b6040516020818303038152906040527f87a362a4000000000000000000000000000000000000000000000000000000007bffffffffffffffffffffffffffffffffffffffffffffffffffffffff19166020820180517bffffffffffffffffffffffffffffffffffffffffffffffffffffffff83818316178352505050506040516112ba91906123aa565b6000604051808303816000865af19150503d80600081146112f7576040519150601f19603f3d011682016040523d82523d6000602084013e6112fc565b606091505b50508091505080611342576040517f08c379a0000000000000000000000000000000000000000000000000000000008152600401611339906124f6565b60405180910390fd5b7f000000000000000000000000000000000000000000000000000000000000000073ffffffffffffffffffffffffffffffffffffffff163360405160240161138a91906122f4565b6040516020818303038152906040527f165fcb2d000000000000000000000000000000000000000000000000000000007bffffffffffffffffffffffffffffffffffffffffffffffffffffffff19166020820180517bffffffffffffffffffffffffffffffffffffffffffffffffffffffff838183161783525050505060405161141491906123aa565b6000604051808303816000865af19150503d8060008114611451576040519150601f19603f3d011682016040523d82523d6000602084013e611456565b606091505b5050809150508061149c576040517f08c379a000000000000000000000000000000000000000000000000000000000815260040161149390612562565b60405180910390fd5b50565b60007f000000000000000000000000000000000000000000000000000000000000000073ffffffffffffffffffffffffffffffffffffffff166040516024016040516020818303038152906040527f537d22bd000000000000000000000000000000000000000000000000000000007bffffffffffffffffffffffffffffffffffffffffffffffffffffffff19166020820180517bffffffffffffffffffffffffffffffffffffffffffffffffffffffff838183161783525050505060405161156891906123aa565b600060405180830381855afa9150503d80600081146115a3576040519150601f19603f3d011682016040523d82523d6000602084013e6115a8565b606091505b505080915050806115ee576040517f08c379a00000000000000000000000000000000000000000000000000000000081526004016115e5906125ce565b60405180910390fd5b7f000000000000000000000000000000000000000000000000000000000000000073ffffffffffffffffffffffffffffffffffffffff163360405160240161163691906122f4565b6040516020818303038152906040527f7ca81460000000000000000000000000000000000000000000000000000000007bffffffffffffffffffffffffffffffffffffffffffffffffffffffff19166020820180517bffffffffffffffffffffffffffffffffffffffffffffffffffffffff83818316178352505050506040516116c091906123aa565b6000604051808303816000865af19150503d80600081146116fd576040519150601f19603f3d011682016040523d82523d6000602084013e611702565b606091505b50508091505080611748576040517f08c379a000000000000000000000000000000000000000000000000000000000815260040161173f9061263a565b60405180910390fd5b50565b60007f000000000000000000000000000000000000000000000000000000000000000073ffffffffffffffffffffffffffffffffffffffff166040516024016040516020818303038152906040527f537d22bd000000000000000000000000000000000000000000000000000000007bffffffffffffffffffffffffffffffffffffffffffffffffffffffff19166020820180517bffffffffffffffffffffffffffffffffffffffffffffffffffffffff838183161783525050505060405161181491906123aa565b600060405180830381855afa9150503d806000811461184f576040519150601f19603f3d011682016040523d82523d6000602084013e611854565b606091505b5050809150508061189a576040517f08c379a0000000000000000000000000000000000000000000000000000000008152600401611891906126a6565b60405180910390fd5b7f000000000000000000000000000000000000000000000000000000000000000073ffffffffffffffffffffffffffffffffffffffff16336040516024016118e291906122f4565b6040516020818303038152906040527f7ca81460000000000000000000000000000000000000000000000000000000007bffffffffffffffffffffffffffffffffffffffffffffffffffffffff19166020820180517bffffffffffffffffffffffffffffffffffffffffffffffffffffffff838183161783525050505060405161196c91906123aa565b6000604051808303816000865af19150503d80600081146119a9576040519150601f19603f3d011682016040523d82523d6000602084013e6119ae565b606091505b505080915050806119f4576040517f08c379a00000000000000000000000000000000000000000000000000000000081526004016119eb90612712565b60405180910390fd5b50565b60007f000000000000000000000000000000000000000000000000000000000000000073ffffffffffffffffffffffffffffffffffffffff166040516024016040516020818303038152906040527f537d22bd000000000000000000000000000000000000000000000000000000007bffffffffffffffffffffffffffffffffffffffffffffffffffffffff19166020820180517bffffffffffffffffffffffffffffffffffffffffffffffffffffffff8381831617835250505050604051611ac091906123aa565b600060405180830381855afa9150503d8060008114611afb576040519150601f19603f3d011682016040523d82523d6000602084013e611b00565b606091505b50508091505080611b46576040517f08c379a0000000000000000000000000000000000000000000000000000000008152600401611b3d9061277e565b60405180910390fd5b7f000000000000000000000000000000000000000000000000000000000000000073ffffffffffffffffffffffffffffffffffffffff1633604051602401611b8e91906122f4565b6040516020818303038152906040527f7ca81460000000000000000000000000000000000000000000000000000000007bffffffffffffffffffffffffffffffffffffffffffffffffffffffff19166020820180517bffffffffffffffffffffffffffffffffffffffffffffffffffffffff8381831617835250505050604051611c1891906123aa565b6000604051808303816000865af19150503d8060008114611c55576040519150601f19603f3d011682016040523d82523d6000602084013e611c5a565b606091505b50508091505080611ca0576040517f08c379a0000000000000000000000000000000000000000000000000000000008152600401611c97906127ea565b60405180910390fd5b50565b60007f000000000000000000000000000000000000000000000000000000000000000073ffffffffffffffffffffffffffffffffffffffff166040516024016040516020818303038152906040527f537d22bd000000000000000000000000000000000000000000000000000000007bffffffffffffffffffffffffffffffffffffffffffffffffffffffff19166020820180517bffffffffffffffffffffffffffffffffffffffffffffffffffffffff8381831617835250505050604051611d6c91906123aa565b600060405180830381855afa9150503d8060008114611da7576040519150601f19603f3d011682016040523d82523d6000602084013e611dac565b606091505b50508091505080611df2576040517f08c379a0000000000000000000000000000000000000000000000000000000008152600401611de990612856565b60405180910390fd5b7f000000000000000000000000000000000000000000000000000000000000000073ffffffffffffffffffffffffffffffffffffffff1633604051602401611e3a91906122f4565b6040516020818303038152906040527f7ca81460000000000000000000000000000000000000000000000000000000007bffffffffffffffffffffffffffffffffffffffffffffffffffffffff19166020820180517bffffffffffffffffffffffffffffffffffffffffffffffffffffffff8381831617835250505050604051611ec491906123aa565b6000604051808303816000865af19150503d8060008114611f01576040519150601f19603f3d011682016040523d82523d6000602084013e611f06565b606091505b50508091505080611f4c576040517f08c379a0000000000000000000000000000000000000000000000000000000008152600401611f43906128c2565b60405180910390fd5b50565b60007f000000000000000000000000000000000000000000000000000000000000000073ffffffffffffffffffffffffffffffffffffffff166040516024016040516020818303038152906040527f537d22bd000000000000000000000000000000000000000000000000000000007bffffffffffffffffffffffffffffffffffffffffffffffffffffffff19166020820180517bffffffffffffffffffffffffffffffffffffffffffffffffffffffff838183161783525050505060405161201891906123aa565b600060405180830381855afa9150503d8060008114612053576040519150601f19603f3d011682016040523d82523d6000602084013e612058565b606091505b5050809150508061209e576040517f08c379a000000000000000000000000000000000000000000000000000000000815260040161209590612954565b60405180910390fd5b7f000000000000000000000000000000000000000000000000000000000000000073ffffffffffffffffffffffffffffffffffffffff16336040516024016120e691906122f4565b6040516020818303038152906040527f7ca81460000000000000000000000000000000000000000000000000000000007bffffffffffffffffffffffffffffffffffffffffffffffffffffffff19166020820180517bffffffffffffffffffffffffffffffffffffffffffffffffffffffff838183161783525050505060405161217091906123aa565b6000604051808303816000865af19150503d80600081146121ad576040519150601f19603f3d011682016040523d82523d6000602084013e6121b2565b606091505b505080915050806121f8576040517f08c379a00000000000000000000000000000000000000000000000000000000081526004016121ef906129c0565b60405180910390fd5b50565b600080fd5b60008115159050919050565b61221581612200565b811461222057600080fd5b50565b6000813590506122328161220c565b92915050565b600080600080600060a08688031215612254576122536121fb565b5b600061226288828901612223565b955050602061227388828901612223565b945050604061228488828901612223565b935050606061229588828901612223565b92505060806122a688828901612223565b9150509295509295909350565b600073ffffffffffffffffffffffffffffffffffffffff82169050919050565b60006122de826122b3565b9050919050565b6122ee816122d3565b82525050565b600060208201905061230960008301846122e5565b92915050565b61231881612200565b82525050565b6000602082019050612333600083018461230f565b92915050565b600081519050919050565b600081905092915050565b60005b8381101561236d578082015181840152602081019050612352565b60008484015250505050565b600061238482612339565b61238e8185612344565b935061239e81856020860161234f565b80840191505092915050565b60006123b68284612379565b915081905092915050565b600082825260208201905092915050565b7f547261696e2073656174206973206e6f7420617661696c61626c652e00000000600082015250565b6000612408601c836123c1565b9150612413826123d2565b602082019050919050565b60006020820190508181036000830152612437816123fb565b9050919050565b7f486f74656c20726f6f6d206973206e6f7420617661696c61626c652e00000000600082015250565b6000612474601c836123c1565b915061247f8261243e565b602082019050919050565b600060208201905081810360008301526124a381612467565b9050919050565b7f547261696e20626f6f6b696e67206661696c65642e0000000000000000000000600082015250565b60006124e06015836123c1565b91506124eb826124aa565b602082019050919050565b6000602082019050818103600083015261250f816124d3565b9050919050565b7f486f74656c20626f6f6b696e67206661696c65642e0000000000000000000000600082015250565b600061254c6015836123c1565b915061255782612516565b602082019050919050565b6000602082019050818103600083015261257b8161253f565b9050919050565b7f506c616e652073656174206973206e6f7420617661696c61626c652e00000000600082015250565b60006125b8601c836123c1565b91506125c382612582565b602082019050919050565b600060208201905081810360008301526125e7816125ab565b9050919050565b7f506c616e6520626f6f6b696e67206661696c65642e0000000000000000000000600082015250565b60006126246015836123c1565b915061262f826125ee565b602082019050919050565b6000602082019050818103600083015261265381612617565b9050919050565b7f54617869206973206e6f7420617661696c61626c652e00000000000000000000600082015250565b60006126906016836123c1565b915061269b8261265a565b602082019050919050565b600060208201905081810360008301526126bf81612683565b9050919050565b7f5461786920626f6f6b696e67206661696c65642e000000000000000000000000600082015250565b60006126fc6014836123c1565b9150612707826126c6565b602082019050919050565b6000602082019050818103600083015261272b816126ef565b9050919050565b7f5961636874206973206e6f7420617661696c61626c652e000000000000000000600082015250565b60006127686017836123c1565b915061277382612732565b602082019050919050565b600060208201905081810360008301526127978161275b565b9050919050565b7f596163687420626f6f6b696e67206661696c65642e0000000000000000000000600082015250565b60006127d46015836123c1565b91506127df8261279e565b602082019050919050565b60006020820190508181036000830152612803816127c7565b9050919050565b7f4d6f766965207469636b6574206973206e6f7420617661696c61626c652e0000600082015250565b6000612840601e836123c1565b915061284b8261280a565b602082019050919050565b6000602082019050818103600083015261286f81612833565b9050919050565b7f4d6f76696520626f6f6b696e67206661696c65642e0000000000000000000000600082015250565b60006128ac6015836123c1565b91506128b782612876565b602082019050919050565b600060208201905081810360008301526128db8161289f565b9050919050565b7f52657374617572616e74207461626c65206973206e6f7420617661696c61626c60008201527f652e000000000000000000000000000000000000000000000000000000000000602082015250565b600061293e6022836123c1565b9150612949826128e2565b604082019050919050565b6000602082019050818103600083015261296d81612931565b9050919050565b7f52657374617572616e7420626f6f6b696e67206661696c65642e000000000000600082015250565b60006129aa601a836123c1565b91506129b582612974565b602082019050919050565b600060208201905081810360008301526129d98161299d565b905091905056fea2646970667358221220a2c07397526f91dab15c9843da2c400b904f11d7cbb7d39e127512298fe52bd064736f6c63430008170033","linkReferences":{}},"methodIdentifiers":{"bookTrainAndHotel()":"5710ddcd","bookTrip(bool,bool,bool,bool,bool)":"2990672c","checkAvailability(bool,bool,bool,bool,bool)":"6e1ed9d8","hotelBooking()":"9af6c63a","movieBooking()":"3761653e","planeBooking()":"72a36fc5","restaurantBooking()":"81fe644d","taxiBooking()":"6c153bf9","trainBooking()":"84e78679","yachtBooking()":"3bc29004"},"id":8}