{"abi":[{"type":"constructor","inputs":[{"name":"_trainBooking","type":"address","internalType":"address"},{"name":"_hotelBooking","type":"address","internalType":"address"}],"stateMutability":"nonpayable"},{"type":"function","name":"bookTrainAndHotel","inputs":[],"outputs":[],"stateMutability":"nonpayable"},{"type":"function","name":"hotelBooking","inputs":[],"outputs":[{"name":"","type":"address","internalType":"address"}],"stateMutability":"view"},{"type":"function","name":"trainBooking","inputs":[],"outputs":[{"name":"","type":"address","internalType":"address"}],"stateMutability":"view"}],"bytecode":{"object":"0x60c060405234801561000f575f5ffd5b50604051610a8b380380610a8b833981810160405281019061003191906100fe565b8173ffffffffffffffffffffffffffffffffffffffff1660808173ffffffffffffffffffffffffffffffffffffffff16815250508073ffffffffffffffffffffffffffffffffffffffff1660a08173ffffffffffffffffffffffffffffffffffffffff1681525050505061013c565b5f5ffd5b5f73ffffffffffffffffffffffffffffffffffffffff82169050919050565b5f6100cd826100a4565b9050919050565b6100dd816100c3565b81146100e7575f5ffd5b50565b5f815190506100f8816100d4565b92915050565b5f5f60408385031215610114576101136100a0565b5b5f610121858286016100ea565b9250506020610132858286016100ea565b9150509250929050565b60805160a0516109136101785f395f81816101d801528181610478015261064b01525f8181608e01528181610322015261062701526109135ff3fe608060405234801561000f575f5ffd5b506004361061003f575f3560e01c80635710ddcd1461004357806384e786791461004d5780639af6c63a1461006b575b5f5ffd5b61004b610089565b005b610055610625565b60405161006291906106ac565b60405180910390f35b610073610649565b60405161008091906106ac565b60405180910390f35b5f5f5f7f000000000000000000000000000000000000000000000000000000000000000073ffffffffffffffffffffffffffffffffffffffff166040516024016040516020818303038152906040527f4a6e480e000000000000000000000000000000000000000000000000000000007bffffffffffffffffffffffffffffffffffffffffffffffffffffffff19166020820180517bffffffffffffffffffffffffffffffffffffffffffffffffffffffff83818316178352505050506040516101539190610717565b5f60405180830381855afa9150503d805f811461018b576040519150601f19603f3d011682016040523d82523d5f602084013e610190565b606091505b505080935050826101d6576040517f08c379a00000000000000000000000000000000000000000000000000000000081526004016101cd90610787565b60405180910390fd5b7f000000000000000000000000000000000000000000000000000000000000000073ffffffffffffffffffffffffffffffffffffffff166040516024016040516020818303038152906040527f0e424b2b000000000000000000000000000000000000000000000000000000007bffffffffffffffffffffffffffffffffffffffffffffffffffffffff19166020820180517bffffffffffffffffffffffffffffffffffffffffffffffffffffffff838183161783525050505060405161029d9190610717565b5f60405180830381855afa9150503d805f81146102d5576040519150601f19603f3d011682016040523d82523d5f602084013e6102da565b606091505b50508092505081610320576040517f08c379a0000000000000000000000000000000000000000000000000000000008152600401610317906107ef565b60405180910390fd5b7f000000000000000000000000000000000000000000000000000000000000000073ffffffffffffffffffffffffffffffffffffffff163360405160240161036891906106ac565b6040516020818303038152906040527f87a362a4000000000000000000000000000000000000000000000000000000007bffffffffffffffffffffffffffffffffffffffffffffffffffffffff19166020820180517bffffffffffffffffffffffffffffffffffffffffffffffffffffffff83818316178352505050506040516103f29190610717565b5f604051808303815f865af19150503d805f811461042b576040519150601f19603f3d011682016040523d82523d5f602084013e610430565b606091505b50508091505080610476576040517f08c379a000000000000000000000000000000000000000000000000000000000815260040161046d90610857565b60405180910390fd5b7f000000000000000000000000000000000000000000000000000000000000000073ffffffffffffffffffffffffffffffffffffffff16336040516024016104be91906106ac565b6040516020818303038152906040527f165fcb2d000000000000000000000000000000000000000000000000000000007bffffffffffffffffffffffffffffffffffffffffffffffffffffffff19166020820180517bffffffffffffffffffffffffffffffffffffffffffffffffffffffff83818316178352505050506040516105489190610717565b5f604051808303815f865af19150503d805f8114610581576040519150601f19603f3d011682016040523d82523d5f602084013e610586565b606091505b505080915050806105cc576040517f08c379a00000000000000000000000000000000000000000000000000000000081526004016105c3906108bf565b60405180910390fd5b60015f5f3373ffffffffffffffffffffffffffffffffffffffff1673ffffffffffffffffffffffffffffffffffffffff1681526020019081526020015f205f6101000a81548160ff021916908315150217905550505050565b7f000000000000000000000000000000000000000000000000000000000000000081565b7f000000000000000000000000000000000000000000000000000000000000000081565b5f73ffffffffffffffffffffffffffffffffffffffff82169050919050565b5f6106968261066d565b9050919050565b6106a68161068c565b82525050565b5f6020820190506106bf5f83018461069d565b92915050565b5f81519050919050565b5f81905092915050565b8281835e5f83830152505050565b5f6106f1826106c5565b6106fb81856106cf565b935061070b8185602086016106d9565b80840191505092915050565b5f61072282846106e7565b915081905092915050565b5f82825260208201905092915050565b7f547261696e2073656174206973206e6f7420617661696c61626c652e000000005f82015250565b5f610771601c8361072d565b915061077c8261073d565b602082019050919050565b5f6020820190508181035f83015261079e81610765565b9050919050565b7f486f74656c20726f6f6d206973206e6f7420617661696c61626c652e000000005f82015250565b5f6107d9601c8361072d565b91506107e4826107a5565b602082019050919050565b5f6020820190508181035f830152610806816107cd565b9050919050565b7f547261696e20626f6f6b696e67206661696c65642e00000000000000000000005f82015250565b5f61084160158361072d565b915061084c8261080d565b602082019050919050565b5f6020820190508181035f83015261086e81610835565b9050919050565b7f486f74656c20626f6f6b696e67206661696c65642e00000000000000000000005f82015250565b5f6108a960158361072d565b91506108b482610875565b602082019050919050565b5f6020820190508181035f8301526108d68161089d565b905091905056fea264697066735822122056af691efd63de244933240be323e45ac1d4eaac399a3ae95d3cb91420f79c7564736f6c634300081e0033","linkReferences":{}},"methodIdentifiers":{"bookTrainAndHotel()":"5710ddcd","hotelBooking()":"9af6c63a","trainBooking()":"84e78679"},"id":0}