{"abi":[{"type":"function","name":"MAX_SEATS","inputs":[],"outputs":[{"name":"","type":"uint256","internalType":"uint256"}],"stateMutability":"view"},{"type":"function","name":"book","inputs":[{"name":"account","type":"address","internalType":"address"}],"outputs":[],"stateMutability":"nonpayable"},{"type":"function","name":"bookedCount","inputs":[],"outputs":[{"name":"","type":"uint256","internalType":"uint256"}],"stateMutability":"view"},{"type":"function","name":"bookings","inputs":[{"name":"","type":"uint256","internalType":"uint256"}],"outputs":[{"name":"","type":"address","internalType":"address"}],"stateMutability":"view"},{"type":"function","name":"checkAvailability","inputs":[],"outputs":[],"stateMutability":"view"},{"type":"function","name":"getBookedCount","inputs":[],"outputs":[{"name":"","type":"uint256","internalType":"uint256"}],"stateMutability":"view"}],"bytecode":{"object":"0x608060405234801561001057600080fd5b506104b8806100206000396000f3fe608060405234801561001057600080fd5b50600436106100625760003560e01c80631dab301e14610067578063537d22bd146100975780637ca81460146100a157806394c2c24f146100bd578063a7e67475146100db578063eab22a8d146100f9575b600080fd5b610081600480360381019061007c9190610253565b610117565b60405161008e91906102c1565b60405180910390f35b61009f61014e565b005b6100bb60048036038101906100b69190610308565b610196565b005b6100c5610203565b6040516100d29190610344565b60405180910390f35b6100e3610209565b6040516100f09190610344565b60405180910390f35b610101610212565b60405161010e9190610344565b60405180910390f35b60018161012c811061012857600080fd5b016000915054906101000a900473ffffffffffffffffffffffffffffffffffffffff1681565b61012c60005410610194576040517f08c379a000000000000000000000000000000000000000000000000000000000815260040161018b906103bc565b60405180910390fd5b565b8060016000808154809291906101ab9061040b565b9190505561012c81106101c1576101c0610453565b5b0160006101000a81548173ffffffffffffffffffffffffffffffffffffffff021916908373ffffffffffffffffffffffffffffffffffffffff16021790555050565b61012c81565b60008054905090565b60005481565b600080fd5b6000819050919050565b6102308161021d565b811461023b57600080fd5b50565b60008135905061024d81610227565b92915050565b60006020828403121561026957610268610218565b5b60006102778482850161023e565b91505092915050565b600073ffffffffffffffffffffffffffffffffffffffff82169050919050565b60006102ab82610280565b9050919050565b6102bb816102a0565b82525050565b60006020820190506102d660008301846102b2565b92915050565b6102e5816102a0565b81146102f057600080fd5b50565b600081359050610302816102dc565b92915050565b60006020828403121561031e5761031d610218565b5b600061032c848285016102f3565b91505092915050565b61033e8161021d565b82525050565b60006020820190506103596000830184610335565b92915050565b600082825260208201905092915050565b7f4e6f206d6f726520736561747320617661696c61626c65000000000000000000600082015250565b60006103a660178361035f565b91506103b182610370565b602082019050919050565b600060208201905081810360008301526103d581610399565b9050919050565b7f4e487b7100000000000000000000000000000000000000000000000000000000600052601160045260246000fd5b60006104168261021d565b91507fffffffffffffffffffffffffffffffffffffffffffffffffffffffffffffffff8203610448576104476103dc565b5b600182019050919050565b7f4e487b7100000000000000000000000000000000000000000000000000000000600052603260045260246000fdfea26469706673582212209c33792f3f6aa3c299335667835e7bd4093bfc3ea0b5a35ea1c46af2b5432bc164736f6c63430008170033","linkReferences":{}},"methodIdentifiers":{"MAX_SEATS()":"94c2c24f","book(address)":"7ca81460","bookedCount()":"eab22a8d","bookings(uint256)":"1dab301e","checkAvailability()":"537d22bd","getBookedCount()":"a7e67475"},"id":3}