{"abi":[{"type":"function","name":"MAX_SEATS","inputs":[],"outputs":[{"name":"","type":"uint256","internalType":"uint256"}],"stateMutability":"view"},{"type":"function","name":"bookTrain","inputs":[{"name":"account","type":"address","internalType":"address"}],"outputs":[],"stateMutability":"nonpayable"},{"type":"function","name":"checkSeatAvailability","inputs":[],"outputs":[],"stateMutability":"view"},{"type":"function","name":"ticketSold","inputs":[],"outputs":[{"name":"","type":"uint256","internalType":"uint256"}],"stateMutability":"view"},{"type":"function","name":"tickets","inputs":[{"name":"","type":"uint256","internalType":"uint256"}],"outputs":[{"name":"","type":"address","internalType":"address"}],"stateMutability":"view"}],"bytecode":{"object":"0x608060405234801561001057600080fd5b50610486806100206000396000f3fe608060405234801561001057600080fd5b50600436106100575760003560e01c8063485cc4391461005c5780634a6e480e1461007a57806350b447121461008457806387a362a4146100b457806394c2c24f146100d0575b600080fd5b6100646100ee565b60405161007191906101ff565b60405180910390f35b6100826100f4565b005b61009e6004803603810190610099919061024b565b61013c565b6040516100ab91906102b9565b60405180910390f35b6100ce60048036038101906100c99190610300565b610173565b005b6100d86101e0565b6040516100e591906101ff565b60405180910390f35b60005481565b61012c6000541061013a576040517f08c379a00000000000000000000000000000000000000000000000000000000081526004016101319061038a565b60405180910390fd5b565b60018161012c811061014d57600080fd5b016000915054906101000a900473ffffffffffffffffffffffffffffffffffffffff1681565b806001600080815480929190610188906103d9565b9190505561012c811061019e5761019d610421565b5b0160006101000a81548173ffffffffffffffffffffffffffffffffffffffff021916908373ffffffffffffffffffffffffffffffffffffffff16021790555050565b61012c81565b6000819050919050565b6101f9816101e6565b82525050565b600060208201905061021460008301846101f0565b92915050565b600080fd5b610228816101e6565b811461023357600080fd5b50565b6000813590506102458161021f565b92915050565b6000602082840312156102615761026061021a565b5b600061026f84828501610236565b91505092915050565b600073ffffffffffffffffffffffffffffffffffffffff82169050919050565b60006102a382610278565b9050919050565b6102b381610298565b82525050565b60006020820190506102ce60008301846102aa565b92915050565b6102dd81610298565b81146102e857600080fd5b50565b6000813590506102fa816102d4565b92915050565b6000602082840312156103165761031561021a565b5b6000610324848285016102eb565b91505092915050565b600082825260208201905092915050565b7f4e6f206d6f7265207469636b657420617661696c61626c650000000000000000600082015250565b600061037460188361032d565b915061037f8261033e565b602082019050919050565b600060208201905081810360008301526103a381610367565b9050919050565b7f4e487b7100000000000000000000000000000000000000000000000000000000600052601160045260246000fd5b60006103e4826101e6565b91507fffffffffffffffffffffffffffffffffffffffffffffffffffffffffffffffff8203610416576104156103aa565b5b600182019050919050565b7f4e487b7100000000000000000000000000000000000000000000000000000000600052603260045260246000fdfea26469706673582212200d53faf81380770c120ebaf976a0ec6ffb367d709138681b4c7e8f951e98dd2c64736f6c63430008170033","linkReferences":{}},"methodIdentifiers":{"MAX_SEATS()":"94c2c24f","bookTrain(address)":"87a362a4","checkSeatAvailability()":"4a6e480e","ticketSold()":"485cc439","tickets(uint256)":"50b44712"},"id":7}