{"abi":[{"type":"function","name":"MAX_SEATS","inputs":[],"outputs":[{"name":"","type":"uint256","internalType":"uint256"}],"stateMutability":"view"},{"type":"function","name":"bookTrain","inputs":[{"name":"account","type":"address","internalType":"address"}],"outputs":[],"stateMutability":"nonpayable"},{"type":"function","name":"checkSeatAvailability","inputs":[],"outputs":[],"stateMutability":"view"},{"type":"function","name":"ticketSold","inputs":[],"outputs":[{"name":"","type":"uint256","internalType":"uint256"}],"stateMutability":"view"},{"type":"function","name":"tickets","inputs":[{"name":"","type":"uint256","internalType":"uint256"}],"outputs":[{"name":"","type":"address","internalType":"address"}],"stateMutability":"view"}],"bytecode":{"object":"0x6080604052348015600e575f5ffd5b506104638061001c5f395ff3fe608060405234801561000f575f5ffd5b5060043610610055575f3560e01c8063485cc439146100595780634a6e480e1461007757806350b447121461008157806387a362a4146100b157806394c2c24f146100cd575b5f5ffd5b6100616100eb565b60405161006e91906101f5565b60405180910390f35b61007f6100f0565b005b61009b6004803603810190610096919061023c565b610137565b6040516100a891906102a6565b60405180910390f35b6100cb60048036038101906100c691906102e9565b61016c565b005b6100d56101d7565b6040516100e291906101f5565b60405180910390f35b5f5481565b61012c5f5410610135576040517f08c379a000000000000000000000000000000000000000000000000000000000815260040161012c9061036e565b60405180910390fd5b565b60018161012c8110610147575f80fd5b015f915054906101000a900473ffffffffffffffffffffffffffffffffffffffff1681565b8060015f5f815480929190610180906103b9565b9190505561012c811061019657610195610400565b5b015f6101000a81548173ffffffffffffffffffffffffffffffffffffffff021916908373ffffffffffffffffffffffffffffffffffffffff16021790555050565b61012c81565b5f819050919050565b6101ef816101dd565b82525050565b5f6020820190506102085f8301846101e6565b92915050565b5f5ffd5b61021b816101dd565b8114610225575f5ffd5b50565b5f8135905061023681610212565b92915050565b5f602082840312156102515761025061020e565b5b5f61025e84828501610228565b91505092915050565b5f73ffffffffffffffffffffffffffffffffffffffff82169050919050565b5f61029082610267565b9050919050565b6102a081610286565b82525050565b5f6020820190506102b95f830184610297565b92915050565b6102c881610286565b81146102d2575f5ffd5b50565b5f813590506102e3816102bf565b92915050565b5f602082840312156102fe576102fd61020e565b5b5f61030b848285016102d5565b91505092915050565b5f82825260208201905092915050565b7f4e6f206d6f7265207469636b657420617661696c61626c6500000000000000005f82015250565b5f610358601883610314565b915061036382610324565b602082019050919050565b5f6020820190508181035f8301526103858161034c565b9050919050565b7f4e487b71000000000000000000000000000000000000000000000000000000005f52601160045260245ffd5b5f6103c3826101dd565b91507fffffffffffffffffffffffffffffffffffffffffffffffffffffffffffffffff82036103f5576103f461038c565b5b600182019050919050565b7f4e487b71000000000000000000000000000000000000000000000000000000005f52603260045260245ffdfea26469706673582212203661167993d0c5918daee56e2dde779a7a72f4ee74ebbd82e97303025c1d54dc64736f6c634300081e0033","linkReferences":{}},"methodIdentifiers":{"MAX_SEATS()":"94c2c24f","bookTrain(address)":"87a362a4","checkSeatAvailability()":"4a6e480e","ticketSold()":"485cc439","tickets(uint256)":"50b44712"},"id":0}