{"abi":[{"type":"function","name":"MAX_ROOMS","inputs":[],"outputs":[{"name":"","type":"uint256","internalType":"uint256"}],"stateMutability":"view"},{"type":"function","name":"bookHotel","inputs":[{"name":"account","type":"address","internalType":"address"}],"outputs":[],"stateMutability":"nonpayable"},{"type":"function","name":"checkRoomAvailability","inputs":[],"outputs":[],"stateMutability":"view"},{"type":"function","name":"roomReserved","inputs":[],"outputs":[{"name":"","type":"uint256","internalType":"uint256"}],"stateMutability":"view"},{"type":"function","name":"rooms","inputs":[{"name":"","type":"uint256","internalType":"uint256"}],"outputs":[{"name":"","type":"address","internalType":"address"}],"stateMutability":"view"}],"bytecode":{"object":"0x6080604052348015600e575f5ffd5b506104638061001c5f395ff3fe608060405234801561000f575f5ffd5b5060043610610055575f3560e01c80630e424b2b14610059578063165fcb2d146100635780631bae0ac81461007f578063427eaabb146100af578063463f5ce2146100cd575b5f5ffd5b6100616100eb565b005b61007d6004803603810190610078919061023b565b610132565b005b61009960048036038101906100949190610299565b61019d565b6040516100a691906102d3565b60405180910390f35b6100b76101d2565b6040516100c491906102fb565b60405180910390f35b6100d56101d8565b6040516100e291906102fb565b60405180910390f35b61012c5f5410610130576040517f08c379a00000000000000000000000000000000000000000000000000000000081526004016101279061036e565b60405180910390fd5b565b8060015f5f815480929190610146906103b9565b9190505561012c811061015c5761015b610400565b5b015f6101000a81548173ffffffffffffffffffffffffffffffffffffffff021916908373ffffffffffffffffffffffffffffffffffffffff16021790555050565b60018161012c81106101ad575f80fd5b015f915054906101000a900473ffffffffffffffffffffffffffffffffffffffff1681565b61012c81565b5f5481565b5f5ffd5b5f73ffffffffffffffffffffffffffffffffffffffff82169050919050565b5f61020a826101e1565b9050919050565b61021a81610200565b8114610224575f5ffd5b50565b5f8135905061023581610211565b92915050565b5f602082840312156102505761024f6101dd565b5b5f61025d84828501610227565b91505092915050565b5f819050919050565b61027881610266565b8114610282575f5ffd5b50565b5f813590506102938161026f565b92915050565b5f602082840312156102ae576102ad6101dd565b5b5f6102bb84828501610285565b91505092915050565b6102cd81610200565b82525050565b5f6020820190506102e65f8301846102c4565b92915050565b6102f581610266565b82525050565b5f60208201905061030e5f8301846102ec565b92915050565b5f82825260208201905092915050565b7f4e6f206d6f726520726f6f6d20617661696c61626c65000000000000000000005f82015250565b5f610358601683610314565b915061036382610324565b602082019050919050565b5f6020820190508181035f8301526103858161034c565b9050919050565b7f4e487b71000000000000000000000000000000000000000000000000000000005f52601160045260245ffd5b5f6103c382610266565b91507fffffffffffffffffffffffffffffffffffffffffffffffffffffffffffffffff82036103f5576103f461038c565b5b600182019050919050565b7f4e487b71000000000000000000000000000000000000000000000000000000005f52603260045260245ffdfea26469706673582212203cf6fa93e2e40237c83ef8408ac14c8423d616929843be14e1dcd43083bd5ca964736f6c634300081e0033","linkReferences":{}},"methodIdentifiers":{"MAX_ROOMS()":"427eaabb","bookHotel(address)":"165fcb2d","checkRoomAvailability()":"0e424b2b","roomReserved()":"463f5ce2","rooms(uint256)":"1bae0ac8"},"id":0}