{"abi":[{"type":"function","name":"MAX_ROOMS","inputs":[],"outputs":[{"name":"","type":"uint256","internalType":"uint256"}],"stateMutability":"view"},{"type":"function","name":"bookHotel","inputs":[{"name":"account","type":"address","internalType":"address"}],"outputs":[],"stateMutability":"nonpayable"},{"type":"function","name":"checkRoomAvailability","inputs":[],"outputs":[],"stateMutability":"view"},{"type":"function","name":"roomReserved","inputs":[],"outputs":[{"name":"","type":"uint256","internalType":"uint256"}],"stateMutability":"view"},{"type":"function","name":"rooms","inputs":[{"name":"","type":"uint256","internalType":"uint256"}],"outputs":[{"name":"","type":"address","internalType":"address"}],"stateMutability":"view"}],"bytecode":{"object":"0x608060405234801561001057600080fd5b50610486806100206000396000f3fe608060405234801561001057600080fd5b50600436106100575760003560e01c80630e424b2b1461005c578063165fcb2d146100665780631bae0ac814610082578063427eaabb146100b2578063463f5ce2146100d0575b600080fd5b6100646100ee565b005b610080600480360381019061007b9190610249565b610136565b005b61009c600480360381019061009791906102ac565b6101a3565b6040516100a991906102e8565b60405180910390f35b6100ba6101da565b6040516100c79190610312565b60405180910390f35b6100d86101e0565b6040516100e59190610312565b60405180910390f35b61012c60005410610134576040517f08c379a000000000000000000000000000000000000000000000000000000000815260040161012b9061038a565b60405180910390fd5b565b80600160008081548092919061014b906103d9565b9190505561012c811061016157610160610421565b5b0160006101000a81548173ffffffffffffffffffffffffffffffffffffffff021916908373ffffffffffffffffffffffffffffffffffffffff16021790555050565b60018161012c81106101b457600080fd5b016000915054906101000a900473ffffffffffffffffffffffffffffffffffffffff1681565b61012c81565b60005481565b600080fd5b600073ffffffffffffffffffffffffffffffffffffffff82169050919050565b6000610216826101eb565b9050919050565b6102268161020b565b811461023157600080fd5b50565b6000813590506102438161021d565b92915050565b60006020828403121561025f5761025e6101e6565b5b600061026d84828501610234565b91505092915050565b6000819050919050565b61028981610276565b811461029457600080fd5b50565b6000813590506102a681610280565b92915050565b6000602082840312156102c2576102c16101e6565b5b60006102d084828501610297565b91505092915050565b6102e28161020b565b82525050565b60006020820190506102fd60008301846102d9565b92915050565b61030c81610276565b82525050565b60006020820190506103276000830184610303565b92915050565b600082825260208201905092915050565b7f4e6f206d6f726520726f6f6d20617661696c61626c6500000000000000000000600082015250565b600061037460168361032d565b915061037f8261033e565b602082019050919050565b600060208201905081810360008301526103a381610367565b9050919050565b7f4e487b7100000000000000000000000000000000000000000000000000000000600052601160045260246000fd5b60006103e482610276565b91507fffffffffffffffffffffffffffffffffffffffffffffffffffffffffffffffff8203610416576104156103aa565b5b600182019050919050565b7f4e487b7100000000000000000000000000000000000000000000000000000000600052603260045260246000fdfea2646970667358221220a6262d5345bc233bbba4707f73e4c2641d1f986897a4d6ac5c8e63fe0da4ef3764736f6c63430008170033","linkReferences":{}},"methodIdentifiers":{"MAX_ROOMS()":"427eaabb","bookHotel(address)":"165fcb2d","checkRoomAvailability()":"0e424b2b","roomReserved()":"463f5ce2","rooms(uint256)":"1bae0ac8"},"id":0}