{"abi":[{"type":"constructor","inputs":[],"stateMutability":"nonpayable"},{"type":"function","name":"NUM_SHARDS","inputs":[],"outputs":[{"name":"","type":"uint256","internalType":"uint256"}],"stateMutability":"view"},{"type":"function","name":"batchGetShards","inputs":[{"name":"accounts","type":"address[]","internalType":"address[]"}],"outputs":[{"name":"","type":"uint256[]","internalType":"uint256[]"}],"stateMutability":"pure"},{"type":"function","name":"getShardForAccount","inputs":[{"name":"account","type":"address","internalType":"address"}],"outputs":[{"name":"","type":"uint256","internalType":"uint256"}],"stateMutability":"pure"},{"type":"function","name":"localBalances","inputs":[{"name":"","type":"address","internalType":"address"}],"outputs":[{"name":"","type":"uint256","internalType":"uint256"}],"stateMutability":"view"},{"type":"function","name":"shardAssignment","inputs":[{"name":"","type":"address","internalType":"address"}],"outputs":[{"name":"","type":"uint256","internalType":"uint256"}],"stateMutability":"view"},{"type":"function","name":"transferCrossShard","inputs":[{"name":"from","type":"address","internalType":"address"},{"name":"to","type":"address","internalType":"address"},{"name":"amount","type":"uint256","internalType":"uint256"}],"outputs":[{"name":"fromShard","type":"uint256","internalType":"uint256"},{"name":"toShard","type":"uint256","internalType":"uint256"}],"stateMutability":"nonpayable"},{"type":"function","name":"updateBalance","inputs":[{"name":"account","type":"address","internalType":"address"},{"name":"amount","type":"uint256","internalType":"uint256"}],"outputs":[],"stateMutability":"nonpayable"},{"type":"event","name":"BalanceUpdate","inputs":[{"name":"account","type":"address","indexed":true,"internalType":"address"},{"name":"shard","type":"uint256","indexed":false,"internalType":"uint256"},{"name":"amount","type":"uint256","indexed":false,"internalType":"uint256"}],"anonymous":false},{"type":"event","name":"CrossShardOperation","inputs":[{"name":"from","type":"address","indexed":true,"internalType":"address"},{"name":"to","type":"address","indexed":true,"internalType":"address"},{"name":"amount","type":"uint256","indexed":false,"internalType":"uint256"}],"anonymous":false}],"bytecode":{"object":"0x608060405234801561001057600080fd5b50610ba4806100206000396000f3fe608060405234801561001057600080fd5b506004361061007d5760003560e01c8063ad5f4fa11161005b578063ad5f4fa114610100578063ba7074dd14610130578063dcd854dc14610161578063e0b1cccb146101915761007d565b80630b839eac1461008257806340160e86146100a057806385f5992a146100d0575b600080fd5b61008a6101ad565b6040516100979190610598565b60405180910390f35b6100ba60048036038101906100b59190610622565b6101b2565b6040516100c7919061072d565b60405180910390f35b6100ea60048036038101906100e591906107ad565b610279565b6040516100f79190610598565b60405180910390f35b61011a600480360381019061011591906107ad565b610291565b6040516101279190610598565b60405180910390f35b61014a60048036038101906101459190610806565b6102bd565b604051610158929190610859565b60405180910390f35b61017b600480360381019061017691906107ad565b610484565b6040516101889190610598565b60405180910390f35b6101ab60048036038101906101a69190610882565b61049c565b005b600681565b606060008383905067ffffffffffffffff8111156101d3576101d26108c2565b5b6040519080825280602002602001820160405280156102015781602001602082028036833780820191505090505b50905060005b8484905081101561026e57610242858583818110610228576102276108f1565b5b905060200201602081019061023d91906107ad565b610291565b828281518110610255576102546108f1565b5b6020026020010181815250508080600101915050610207565b508091505092915050565b60006020528060005260406000206000915090505481565b600060068273ffffffffffffffffffffffffffffffffffffffff166102b6919061094f565b9050919050565b6000806102c985610291565b91506102d484610291565b90506000821480156102e65750600081145b1561041757826000808773ffffffffffffffffffffffffffffffffffffffff1673ffffffffffffffffffffffffffffffffffffffff16815260200190815260200160002054101561036c576040517f08c379a0000000000000000000000000000000000000000000000000000000008152600401610363906109dd565b60405180910390fd5b826000808773ffffffffffffffffffffffffffffffffffffffff1673ffffffffffffffffffffffffffffffffffffffff16815260200190815260200160002060008282546103ba9190610a2c565b92505081905550826000808673ffffffffffffffffffffffffffffffffffffffff1673ffffffffffffffffffffffffffffffffffffffff168152602001908152602001600020600082825461040f9190610a60565b925050819055505b8373ffffffffffffffffffffffffffffffffffffffff168573ffffffffffffffffffffffffffffffffffffffff167f07ec91206034800231315714012a96579effb2d7198efef4e8390efbb467c183856040516104749190610598565b60405180910390a3935093915050565b60016020528060005260406000206000915090505481565b60006104a783610291565b146104e7576040517f08c379a00000000000000000000000000000000000000000000000000000000081526004016104de90610ae0565b60405180910390fd5b806000808473ffffffffffffffffffffffffffffffffffffffff1673ffffffffffffffffffffffffffffffffffffffff168152602001908152602001600020819055508173ffffffffffffffffffffffffffffffffffffffff167fbbac117825721ba643d8ad675fe8e22c08ec438c38be7b6981ce85c631c88eb7600083604051610573929190610b45565b60405180910390a25050565b6000819050919050565b6105928161057f565b82525050565b60006020820190506105ad6000830184610589565b92915050565b600080fd5b600080fd5b600080fd5b600080fd5b600080fd5b60008083601f8401126105e2576105e16105bd565b5b8235905067ffffffffffffffff8111156105ff576105fe6105c2565b5b60208301915083602082028301111561061b5761061a6105c7565b5b9250929050565b60008060208385031215610639576106386105b3565b5b600083013567ffffffffffffffff811115610657576106566105b8565b5b610663858286016105cc565b92509250509250929050565b600081519050919050565b600082825260208201905092915050565b6000819050602082019050919050565b6106a48161057f565b82525050565b60006106b6838361069b565b60208301905092915050565b6000602082019050919050565b60006106da8261066f565b6106e4818561067a565b93506106ef8361068b565b8060005b8381101561072057815161070788826106aa565b9750610712836106c2565b9250506001810190506106f3565b5085935050505092915050565b6000602082019050818103600083015261074781846106cf565b905092915050565b600073ffffffffffffffffffffffffffffffffffffffff82169050919050565b600061077a8261074f565b9050919050565b61078a8161076f565b811461079557600080fd5b50565b6000813590506107a781610781565b92915050565b6000602082840312156107c3576107c26105b3565b5b60006107d184828501610798565b91505092915050565b6107e38161057f565b81146107ee57600080fd5b50565b600081359050610800816107da565b92915050565b60008060006060848603121561081f5761081e6105b3565b5b600061082d86828701610798565b935050602061083e86828701610798565b925050604061084f868287016107f1565b9150509250925092565b600060408201905061086e6000830185610589565b61087b6020830184610589565b9392505050565b60008060408385031215610899576108986105b3565b5b60006108a785828601610798565b92505060206108b8858286016107f1565b9150509250929050565b7f4e487b7100000000000000000000000000000000000000000000000000000000600052604160045260246000fd5b7f4e487b7100000000000000000000000000000000000000000000000000000000600052603260045260246000fd5b7f4e487b7100000000000000000000000000000000000000000000000000000000600052601260045260246000fd5b600061095a8261057f565b91506109658361057f565b92508261097557610974610920565b5b828206905092915050565b600082825260208201905092915050565b7f496e73756666696369656e742062616c616e6365000000000000000000000000600082015250565b60006109c7601483610980565b91506109d282610991565b602082019050919050565b600060208201905081810360008301526109f6816109ba565b9050919050565b7f4e487b7100000000000000000000000000000000000000000000000000000000600052601160045260246000fd5b6000610a378261057f565b9150610a428361057f565b9250828203905081811115610a5a57610a596109fd565b5b92915050565b6000610a6b8261057f565b9150610a768361057f565b9250828201905080821115610a8e57610a8d6109fd565b5b92915050565b7f4163636f756e74207374617465206e6f74206f6e207468697320736861726400600082015250565b6000610aca601f83610980565b9150610ad582610a94565b602082019050919050565b60006020820190508181036000830152610af981610abd565b9050919050565b6000819050919050565b6000819050919050565b6000610b2f610b2a610b2584610b00565b610b0a565b61057f565b9050919050565b610b3f81610b14565b82525050565b6000604082019050610b5a6000830185610b36565b610b676020830184610589565b939250505056fea2646970667358221220c871c7c225ce284cc058bfeff05b52712ceec7740f908ae60470167f7eb22aef64736f6c63430008170033","linkReferences":{}},"methodIdentifiers":{"NUM_SHARDS()":"0b839eac","batchGetShards(address[])":"40160e86","getShardForAccount(address)":"ad5f4fa1","localBalances(address)":"85f5992a","shardAssignment(address)":"dcd854dc","transferCrossShard(address,address,uint256)":"ba7074dd","updateBalance(address,uint256)":"e0b1cccb"},"id":2}