{"abi":[{"type":"constructor","inputs":[],"stateMutability":"nonpayable"},{"type":"function","name":"NUM_SHARDS","inputs":[],"outputs":[{"name":"","type":"uint256","internalType":"uint256"}],"stateMutability":"view"},{"type":"function","name":"batchGetShards","inputs":[{"name":"accounts","type":"address[]","internalType":"address[]"}],"outputs":[{"name":"","type":"uint256[]","internalType":"uint256[]"}],"stateMutability":"pure"},{"type":"function","name":"getShardForAccount","inputs":[{"name":"account","type":"address","internalType":"address"}],"outputs":[{"name":"","type":"uint256","internalType":"uint256"}],"stateMutability":"pure"},{"type":"function","name":"localBalances","inputs":[{"name":"","type":"address","internalType":"address"}],"outputs":[{"name":"","type":"uint256","internalType":"uint256"}],"stateMutability":"view"},{"type":"function","name":"shardAssignment","inputs":[{"name":"","type":"address","internalType":"address"}],"outputs":[{"name":"","type":"uint256","internalType":"uint256"}],"stateMutability":"view"},{"type":"function","name":"transferCrossShard","inputs":[{"name":"from","type":"address","internalType":"address"},{"name":"to","type":"address","internalType":"address"},{"name":"amount","type":"uint256","internalType":"uint256"}],"outputs":[{"name":"fromShard","type":"uint256","internalType":"uint256"},{"name":"toShard","type":"uint256","internalType":"uint256"}],"stateMutability":"nonpayable"},{"type":"function","name":"updateBalance","inputs":[{"name":"account","type":"address","internalType":"address"},{"name":"amount","type":"uint256","internalType":"uint256"}],"outputs":[],"stateMutability":"nonpayable"},{"type":"event","name":"BalanceUpdate","inputs":[{"name":"account","type":"address","indexed":true,"internalType":"address"},{"name":"shard","type":"uint256","indexed":false,"internalType":"uint256"},{"name":"amount","type":"uint256","indexed":false,"internalType":"uint256"}],"anonymous":false},{"type":"event","name":"CrossShardOperation","inputs":[{"name":"from","type":"address","indexed":true,"internalType":"address"},{"name":"to","type":"address","indexed":true,"internalType":"address"},{"name":"amount","type":"uint256","indexed":false,"internalType":"uint256"}],"anonymous":false}],"bytecode":{"object":"0x608060405234801561000f575f80fd5b50610b998061001d5f395ff3fe608060405234801561000f575f80fd5b506004361061007b575f3560e01c8063ad5f4fa111610059578063ad5f4fa1146100fd578063ba7074dd1461012d578063dcd854dc1461015e578063e0b1cccb1461018e5761007b565b80630b839eac1461007f57806340160e861461009d57806385f5992a146100cd575b5f80fd5b6100876101aa565b6040516100949190610581565b60405180910390f35b6100b760048036038101906100b29190610603565b6101af565b6040516100c49190610705565b60405180910390f35b6100e760048036038101906100e2919061077f565b61027a565b6040516100f49190610581565b60405180910390f35b6101176004803603810190610112919061077f565b61028e565b6040516101249190610581565b60405180910390f35b610147600480360381019061014291906107d4565b6102b9565b604051610155929190610824565b60405180910390f35b6101786004803603810190610173919061077f565b610475565b6040516101859190610581565b60405180910390f35b6101a860048036038101906101a3919061084b565b61048a565b005b600681565b60605f8383905067ffffffffffffffff8111156101cf576101ce610889565b5b6040519080825280602002602001820160405280156101fd5781602001602082028036833780820191505090505b5090505f5b8484905081101561026f5761023d858583818110610223576102226108b6565b5b9050602002016020810190610238919061077f565b61028e565b8282815181106102505761024f6108b6565b5b602002602001018181525050808061026790610910565b915050610202565b508091505092915050565b5f602052805f5260405f205f915090505481565b5f60068273ffffffffffffffffffffffffffffffffffffffff166102b29190610984565b9050919050565b5f806102c48561028e565b91506102cf8461028e565b90505f821480156102df57505f81145b1561040857825f808773ffffffffffffffffffffffffffffffffffffffff1673ffffffffffffffffffffffffffffffffffffffff1681526020019081526020015f20541015610363576040517f08c379a000000000000000000000000000000000000000000000000000000000815260040161035a90610a0e565b60405180910390fd5b825f808773ffffffffffffffffffffffffffffffffffffffff1673ffffffffffffffffffffffffffffffffffffffff1681526020019081526020015f205f8282546103ae9190610a2c565b92505081905550825f808673ffffffffffffffffffffffffffffffffffffffff1673ffffffffffffffffffffffffffffffffffffffff1681526020019081526020015f205f8282546104009190610a5f565b925050819055505b8373ffffffffffffffffffffffffffffffffffffffff168573ffffffffffffffffffffffffffffffffffffffff167f07ec91206034800231315714012a96579effb2d7198efef4e8390efbb467c183856040516104659190610581565b60405180910390a3935093915050565b6001602052805f5260405f205f915090505481565b5f6104948361028e565b146104d4576040517f08c379a00000000000000000000000000000000000000000000000000000000081526004016104cb90610adc565b60405180910390fd5b805f808473ffffffffffffffffffffffffffffffffffffffff1673ffffffffffffffffffffffffffffffffffffffff1681526020019081526020015f20819055508173ffffffffffffffffffffffffffffffffffffffff167fbbac117825721ba643d8ad675fe8e22c08ec438c38be7b6981ce85c631c88eb75f8360405161055d929190610b3c565b60405180910390a25050565b5f819050919050565b61057b81610569565b82525050565b5f6020820190506105945f830184610572565b92915050565b5f80fd5b5f80fd5b5f80fd5b5f80fd5b5f80fd5b5f8083601f8401126105c3576105c26105a2565b5b8235905067ffffffffffffffff8111156105e0576105df6105a6565b5b6020830191508360208202830111156105fc576105fb6105aa565b5b9250929050565b5f80602083850312156106195761061861059a565b5b5f83013567ffffffffffffffff8111156106365761063561059e565b5b610642858286016105ae565b92509250509250929050565b5f81519050919050565b5f82825260208201905092915050565b5f819050602082019050919050565b61068081610569565b82525050565b5f6106918383610677565b60208301905092915050565b5f602082019050919050565b5f6106b38261064e565b6106bd8185610658565b93506106c883610668565b805f5b838110156106f85781516106df8882610686565b97506106ea8361069d565b9250506001810190506106cb565b5085935050505092915050565b5f6020820190508181035f83015261071d81846106a9565b905092915050565b5f73ffffffffffffffffffffffffffffffffffffffff82169050919050565b5f61074e82610725565b9050919050565b61075e81610744565b8114610768575f80fd5b50565b5f8135905061077981610755565b92915050565b5f602082840312156107945761079361059a565b5b5f6107a18482850161076b565b91505092915050565b6107b381610569565b81146107bd575f80fd5b50565b5f813590506107ce816107aa565b92915050565b5f805f606084860312156107eb576107ea61059a565b5b5f6107f88682870161076b565b93505060206108098682870161076b565b925050604061081a868287016107c0565b9150509250925092565b5f6040820190506108375f830185610572565b6108446020830184610572565b9392505050565b5f80604083850312156108615761086061059a565b5b5f61086e8582860161076b565b925050602061087f858286016107c0565b9150509250929050565b7f4e487b71000000000000000000000000000000000000000000000000000000005f52604160045260245ffd5b7f4e487b71000000000000000000000000000000000000000000000000000000005f52603260045260245ffd5b7f4e487b71000000000000000000000000000000000000000000000000000000005f52601160045260245ffd5b5f61091a82610569565b91507fffffffffffffffffffffffffffffffffffffffffffffffffffffffffffffffff820361094c5761094b6108e3565b5b600182019050919050565b7f4e487b71000000000000000000000000000000000000000000000000000000005f52601260045260245ffd5b5f61098e82610569565b915061099983610569565b9250826109a9576109a8610957565b5b828206905092915050565b5f82825260208201905092915050565b7f496e73756666696369656e742062616c616e63650000000000000000000000005f82015250565b5f6109f86014836109b4565b9150610a03826109c4565b602082019050919050565b5f6020820190508181035f830152610a25816109ec565b9050919050565b5f610a3682610569565b9150610a4183610569565b9250828203905081811115610a5957610a586108e3565b5b92915050565b5f610a6982610569565b9150610a7483610569565b9250828201905080821115610a8c57610a8b6108e3565b5b92915050565b7f4163636f756e74207374617465206e6f74206f6e2074686973207368617264005f82015250565b5f610ac6601f836109b4565b9150610ad182610a92565b602082019050919050565b5f6020820190508181035f830152610af381610aba565b9050919050565b5f819050919050565b5f819050919050565b5f610b26610b21610b1c84610afa565b610b03565b610569565b9050919050565b610b3681610b0c565b82525050565b5f604082019050610b4f5f830185610b2d565b610b5c6020830184610572565b939250505056fea26469706673582212200c186085d8dc04ad251b988d94460e233b60c2ba9b29703cafdca4cc76e5237064736f6c63430008140033","linkReferences":{}},"methodIdentifiers":{"NUM_SHARDS()":"0b839eac","batchGetShards(address[])":"40160e86","getShardForAccount(address)":"ad5f4fa1","localBalances(address)":"85f5992a","shardAssignment(address)":"dcd854dc","transferCrossShard(address,address,uint256)":"ba7074dd","updateBalance(address,uint256)":"e0b1cccb"},"id":0}